





/* random raw transaction

* raw transaciton with 1 input

** raw
010000000138966caadb834f37ddb3c51ec417dea9cd9c392e3ab465edd7959de6652c6b4e000000008b483045022100a66c833777f44b828bc1c327e4ee59fde31fd72b5577efabd85090d4ff8f9b6e022041921d797c592df2d566cc7f4fa119ada1aa3e7c8145c9543dd1e5ba765434c20141042ef60f0a969878a7d6acb4e8ba2645771c25b9713ceb4b545678bdfcc0507ab8b7c6650579c0f1b8ac09998501d372aa93657829c4f3c4a8268f0cf87aa8784cffffffff021e5f9902000000001976a9149e71046a35c496d7035e57b564f680adb9a13e9688ac71007000000000001976a914197807be6fab6fa0ccc6f0f6047a63b398b309f088ac00000000

** parsed
version 01000000   

inputs 01 
txid 38966caadb834f37ddb3c51ec417dea9cd9c392e3ab465edd7959de6652c6b4e   32 bytes
vin 00000000  
8b
483045022100a66c833777f44b828bc1c327e4ee59fde31fd72b5577efabd85090d4ff8f9b6e022041921d797c592df2d566cc7f4fa119ada1aa3e7c8145c9543dd1e5ba765434c20141042ef60f0a969878a7d6acb4e8ba2645771c25b9713ceb4b545678bdfcc0507ab8b7c6650579c0f1b8ac09998501d372aa93657829c4f3c4a8268f0cf87aa8784c
seq; ffffffff
outputs 02
amount 1e5f990200000000
pubkey 1976a9149e71046a35c496d7035e57b564f680adb9a13e9688ac
amount 7100700000000000
pubkey 1976a914197807be6fab6fa0ccc6f0f6047a63b398b309f088ac
locktime 00000000 */



* raw transaction with 6 inputs
** full transaction
0100000006a26a1d036e1c65360ceb9ce77b1da6c6d39500aef6524a78286c166926a81d91000000008b483045022100ca361c8365289eb1cd27a939739242bd5d0bb13834b1597e3c835dbf9441ecee02204a51b0423a584d5bb53c210be3c0b798e9a44f5134d56807cf03654de99e917c014104c2845061cde5d61f135c7cc9b427c6cc8baa894d70a50e5a69f355daacf8f804780d3d76418af4bc72594767f2f324c18de991a9a9502f178db63c0ab261ee41ffffffff817f20eeb81773b3aa59390d8650e4d78749dde00703693fd0750e502ba221f1000000008c493046022100ec9642748fe1ce0fca6635afb2c7fc5d0f82e22e837643bce57ad9d367b538a0022100c9f4fa45e5515efad5152af687740269f723c1170b4b9142b76c8d3fb977c5ef014104d0f99cf68f130d7e12b39a0e022b71823b22d449872831b0315144dd50de37c45572694fda10fce9ff2c1f353384542b752888978c994a8fd5149f079c9a19adffffffff5b5c16ea7775a63c576e903672c0356c1c6fb7671649382780e5eba2218d7891010000008b483045022100e07d87f3c0a0abe3d887b74668109299ca7054136764658a2970bbe536a6f92d02207e151e3a9136f0d9b2789a4c83fbd0b239cdb18d3decbb217ecf5ccd8afffe460141047c0c4d119b9f0df71773c455207e770de97e1e052138a8fbb04aea9340aaea700fdef88cf1294cde90a446734eb490424727b0661c0ca7d2d5934d8b086bd70dffffffff787eee4dc013c8d0454ee3e5329030aee1481ca0164cff97b0ab854f89de09a5010000008b4830450220640ed72db0c6c427c0036a32a5ef751449ecf30a7c1ad276acc5b1b676600486022100e001c2391c9a5d5f8179675c84c18ea668b830b1ce68f476d506a06663055dd1014104a8747e8a29837f2b18d8e56c165c54b2e64ac90637bd1730fd68c97f1edac889ab84b7fc62a35a57322f5ef037c0f88d26ce811dc88c7ffc00a70f9994e71defffffffff1b667da92fec9e141b527e65e389439ee8f911f807fecb9b3e4493785b9a8e53000000008a47304402207981c209094335daf272e25877ecb19b38e02019a3d76590a55d6a3b621f4e96022062b3780c2807e7459bed1be86236360ac5c19fdbc5429bc371f2c872da84c43f0141041d04a4e938807cea2313d712daf49d600e164f7536f54665e5f7f55fdfdafc1b9db0bf4b7f7c7988ef61f3ff2f22e429742284cce94b76c98594dd3a874fbb05ffffffff33e1f60d3c1965b0e2f72fad712bacdf6650cb1f1e3c54563ebf72f862c3ae26010000008a47304402206d3866b2b00e18449ba1d9436972a49a55116c5ffa5a9ca48eb630a47e56eac6022063c72d5c1d4958a4368193c31d263e147f011b6bfea6669d4952bc01122f950e014104b3b8f4b793a6d46f3d8007ff65d3002a375057564d5eb7afe1e10a3db133fbbf3a182a354911ae00b999394e31d5d4cd9321b68bea48f6c41209d5d3db718798ffffffff0240420f00000000001976a914273d05143f352d9184838f59e93ceee09579179f88ac00c51c11030000001976a914bb01b691aeadceabc886c1ff1981ebaf9f6c692b88ac00000000
** parsed
version:	01000000
input:		06
--------------------------------------------------------------------------------
a26a1d036e1c65360ceb9ce77b1da6c6d39500aef6524a78286c166926a81d91
00000000
8b
483045022100ca361c8365289eb1cd27a939739242bd5d0bb13834b1597e3c835dbf9441ecee02204a51b0423a584d5bb53c210be3c0b798e9a44f5134d56807cf03654de99e917c014104c2845061cde5d61f135c7cc9b427c6cc8baa894d70a50e5a69f355daacf8f804780d3d76418af4bc72594767f2f324c18de991a9a9502f178db63c0ab261ee41
ffffffff
--------------------------------------------------------------------------------
817f20eeb81773b3aa59390d8650e4d78749dde00703693fd0750e502ba221f1
00000000
8c
493046022100ec9642748fe1ce0fca6635afb2c7fc5d0f82e22e837643bce57ad9d367b538a0022100c9f4fa45e5515efad5152af687740269f723c1170b4b9142b76c8d3fb977c5ef014104d0f99cf68f130d7e12b39a0e022b71823b22d449872831b0315144dd50de37c45572694fda10fce9ff2c1f353384542b752888978c994a8fd5149f079c9a19ad
ffffffff
--------------------------------------------------------------------------------
5b5c16ea7775a63c576e903672c0356c1c6fb7671649382780e5eba2218d7891
01000000
8b
483045022100e07d87f3c0a0abe3d887b74668109299ca7054136764658a2970bbe536a6f92d02207e151e3a9136f0d9b2789a4c83fbd0b239cdb18d3decbb217ecf5ccd8afffe460141047c0c4d119b9f0df71773c455207e770de97e1e052138a8fbb04aea9340aaea700fdef88cf1294cde90a446734eb490424727b0661c0ca7d2d5934d8b086bd70d
ffffffff
--------------------------------------------------------------------------------
787eee4dc013c8d0454ee3e5329030aee1481ca0164cff97b0ab854f89de09a5
01000000
8b
4830450220640ed72db0c6c427c0036a32a5ef751449ecf30a7c1ad276acc5b1b676600486022100e001c2391c9a5d5f8179675c84c18ea668b830b1ce68f476d506a06663055dd1014104a8747e8a29837f2b18d8e56c165c54b2e64ac90637bd1730fd68c97f1edac889ab84b7fc62a35a57322f5ef037c0f88d26ce811dc88c7ffc00a70f9994e71def
ffffffff
--------------------------------------------------------------------------------
1b667da92fec9e141b527e65e389439ee8f911f807fecb9b3e4493785b9a8e53
00000000
8a
47304402207981c209094335daf272e25877ecb19b38e02019a3d76590a55d6a3b621f4e96022062b3780c2807e7459bed1be86236360ac5c19fdbc5429bc371f2c872da84c43f0141041d04a4e938807cea2313d712daf49d600e164f7536f54665e5f7f55fdfdafc1b9db0bf4b7f7c7988ef61f3ff2f22e429742284cce94b76c98594dd3a874fbb05
ffffffff
--------------------------------------------------------------------------------
33e1f60d3c1965b0e2f72fad712bacdf6650cb1f1e3c54563ebf72f862c3ae26
01000000
8a
47304402206d3866b2b00e18449ba1d9436972a49a55116c5ffa5a9ca48eb630a47e56eac6022063c72d5c1d4958a4368193c31d263e147f011b6bfea6669d4952bc01122f950e014104b3b8f4b793a6d46f3d8007ff65d3002a375057564d5eb7afe1e10a3db133fbbf3a182a354911ae00b999394e31d5d4cd9321b68bea48f6c41209d5d3db718798
ffffffff
--------------------------------------------------------------------------------
02
40420f0000000000
19
76a914273d05143f352d9184838f59e93ceee09579179f88ac
00c51c1103000000
1976a914bb01b691aeadceabc886c1ff1981ebaf9f6c692b88ac


00000000 
* raw segwit with many outputs
** raw
01000000000101f25517a179916ba64cf0d4347bfccc79b50a4acbab6162d806ebc41b6e3a87671f00000023220020f24496602cb55c376904fb15cac8108d9b1e08536c261ada17dd5989080134aeffffffff20aa5000000000000017a914a33bc629aad2b3ae0df9489562b930d98e1b645687409a01000000000017a914ecad2828407afafe74ee06b7a6d8fb07c4a0e12e87606702000000000017a914f34d0b39fd5a50f32673631849c11f5e1db7c4a3874c6a02000000000017a91489fff8afa99230d61ff0aadbcd308847b9841c1887b48402000000000017a91449f873a6035b0525cf6d6522f83304a2fea08a1687d78402000000000017a914a1315a79a454192746c414385ec2019490152807874fbf02000000000017a91451ce9821f7b69d6c0e92a44655fcf5efbbec859c874fbf02000000000017a914d50bf4f7912a70d60ad24024eb1cf719aaf248ef8701c002000000000017a914b839debacefb4ff1b64b72ec5c183efda9c78e0387ebf902000000000017a9142c6af79fb86483b1c8834f41295dd6338a871db987523403000000000017a91440fa87aea1d3c157215b933dedfdcbdc127445a0877d3403000000000017a9140e50d6a3664ee62494136d8fed660276ceb79d2c871b6f03000000000017a9147ae04c7db4ac7d91344ea673d2543d3cd5d5538b87426f03000000000017a914b9761757889c7ba9df5d83fab3f43b6d0da5b39487466f03000000000017a914244f796883bb5ea69936dcc186d0b72fda5dad0787b4a903000000000017a9149cf0f74e3ed15337efdefd400e1a3612722fd71c87caa903000000000017a914915fa15778d590b66790bd1e96c9336814c86db2874fe403000000000017a914d9a84fe66f8acb1a50b471d68d2827f62dde5a368767e403000000000017a91420ffde690de6472cc86e53321b9b975cd28f4dfe87921c04000000000017a9143c94ea5e6da6803ebafc29736d6a29421908d8cf87b91e04000000000017a914dc3c29c8ab9a69383d0b4cbf0b5196ffbc2595b887c0ce04000000000017a914238765add75b144dbfbd98be2a8b27778cf75e8d87fbce04000000000017a9145b14b63c2415a38a824a5fbbc239c3d1fda0c8a8875c0905000000000017a9146f72edb268b0437a48d435b513d446560b7bc44487e11c05000000000017a914f98200620324ef8081bc11ad6b0320bc1c22482e872b4305000000000017a91431114bf64ae6791f09f0883334c6a67aaca7c7218729b905000000000017a91454ee36afa4f4e643771134df1d237c11a7f07e87873bb905000000000017a9147d68c1fa1fe068a9235ae4702c430d6fb5a8d8df876fb905000000000017a91431c48d4d90139dd952c1b2c87696318507f8a52d87bd5e07000000000017a914dca56d63c3044bcfe5de9036277571b09ddf3c3087b7bc0d000000000017a9148be29af637a07d398b0f5fabd73781a2ea0649aa8763bb63040000000017a91412073c73bc5e2cbef49beaaa6cff2d7bff0e76c387040047304402204af866f0e8c15a99d7fcfad3942f0dd905894e8ef66c63597e5b681e97b5217102203efc95f4b253cafb1e09b7a39f6eade4d3677e5dd76ac6301231449e9c7b7292014730440220499c29b964add29caabf88b5dcb3d6f00801f224d52ca1482e1d7a6a5a9d800e02204dd54462027e3167eed3191d9bf01cdff5282c2aabc27f24ec760bd699d8041b01695221030a072dcda7a49df0f7ff292408accabf6047c7f94cb8ad2bcc2d0de5258da4872103a5435cb5ac4da6376b5b8799e047268aa447e70d44d2d0f92ff26bf171b3e4c821038a328df95ddc2232fbacca3df9e88bed07f24426409d676264cf7c7886f107e153aea7a80900
** parsed
01000000 version 
0001      segwit
01 inputs
67873a6e1bc4eb06d86261abcb4a0ab579ccfc7b34d4f04ca66b9179a11755f2  txid
0000001f  vout
23	sslenght
220020f24496602cb55c376904fb15cac8108d9b1e08536c261ada17dd5989080134ae  script sig
ffffffff   sequence


32(0x20)  outputs

aa50000000000000
17
a914a33bc629aad2b3ae0df9489562b930d98e1b645687

409a010000000000
17
a914ecad2828407afafe74ee06b7a6d8fb07c4a0e12e87

6067020000000000
17
a914f34d0b39fd5a50f32673631849c11f5e1db7c4a387

4c6a020000000000
17
a91489fff8afa99230d61ff0aadbcd308847b9841c1887

b484020000000000
17
a91449f873a6035b0525cf6d6522f83304a2fea08a1687

d784020000000000
17
a914a1315a79a454192746c414385ec201949015280787

4fbf020000000000
17
a91451ce9821f7b69d6c0e92a44655fcf5efbbec859c87

4fbf020000000000
17
a914d50bf4f7912a70d60ad24024eb1cf719aaf248ef87

01c0020000000000
17
a914b839debacefb4ff1b64b72ec5c183efda9c78e0387

ebf9020000000000
17
a9142c6af79fb86483b1c8834f41295dd6338a871db987

5234030000000000
17
a91440fa87aea1d3c157215b933dedfdcbdc127445a087

7d34030000000000
17
a9140e50d6a3664ee62494136d8fed660276ceb79d2c87

1b6f030000000000
17
a9147ae04c7db4ac7d91344ea673d2543d3cd5d5538b87

426f030000000000
17
a914b9761757889c7ba9df5d83fab3f43b6d0da5b39487

466f030000000000
17
a914244f796883bb5ea69936dcc186d0b72fda5dad0787

b4a9030000000000
17
a9149cf0f74e3ed15337efdefd400e1a3612722fd71c87

caa9030000000000
17
a914915fa15778d590b66790bd1e96c9336814c86db287

4fe4030000000000
17
a914d9a84fe66f8acb1a50b471d68d2827f62dde5a3687

67e4030000000000
17
a91420ffde690de6472cc86e53321b9b975cd28f4dfe87

921c040000000000
17
a9143c94ea5e6da6803ebafc29736d6a29421908d8cf87

b91e040000000000
17
a914dc3c29c8ab9a69383d0b4cbf0b5196ffbc2595b887

c0ce040000000000
17
a914238765add75b144dbfbd98be2a8b27778cf75e8d87

fbce040000000000
17
a9145b14b63c2415a38a824a5fbbc239c3d1fda0c8a887

5c09050000000000
17
a9146f72edb268b0437a48d435b513d446560b7bc44487

e11c050000000000
17
a914f98200620324ef8081bc11ad6b0320bc1c22482e87

2b43050000000000
17
a91431114bf64ae6791f09f0883334c6a67aaca7c72187

29b9050000000000
17
a91454ee36afa4f4e643771134df1d237c11a7f07e8787

3bb9050000000000
17
a9147d68c1fa1fe068a9235ae4702c430d6fb5a8d8df87

6fb9050000000000
17
a91431c48d4d90139dd952c1b2c87696318507f8a52d87

bd5e070000000000
17
a914dca56d63c3044bcfe5de9036277571b09ddf3c3087

b7bc0d0000000000
17
a9148be29af637a07d398b0f5fabd73781a2ea0649aa87

63bb630400000000
17
a91412073c73bc5e2cbef49beaaa6cff2d7bff0e76c387

witness data
040047304402204af866f0e8c15a99d7fcfad3942f0dd905894e8ef66c63597e5b681e97b5217102203efc95f4b253cafb1e09b7a39f6eade4d3677e5dd76ac6301231449e9c7b7292014730440220499c29b964add29caabf88b5dcb3d6f00801f224d52ca1482e1d7a6a5a9d800e02204dd54462027e3167eed3191d9bf01cdff5282c2aabc27f24ec760bd699d8041b01695221030a072dcda7a49df0f7ff292408accabf6047c7f94cb8ad2bcc2d0de5258da4872103a5435cb5ac4da6376b5b8799e047268aa447e70d44d2d0f92ff26bf171b3e4c821038a328df95ddc2232fbacca3df9e88bed07f24426409d676264cf7c7886f107e153ae
a7a80900


* Basic seg

** raw
0200000000010182ae35bb9f2494b26dd28d4fcf0ce858cb5aa4be5063759fd5e2ea62a8985d8a0100000000ffffffff02dfcd07000000000017a9149fc3692215f2cc25dbb0a1a33558f1cec0976dc6870096dd000000000016001400dcfe6c6983bdaed4028b7f389d5cfd68af78850247304402207c415cadc11e25d7b81bb6267688406991523ead6a2fd8d0d84aeb0c4588b12302203fee1137d67a115f6623506fe81c314b9754c58ab362e2bfe94dbc8584f7f936012103c168d6511e9371c60f4dec210ee8111c9bf7b3b8334184a0e1d8329112ff0b4000000000

** parsed
02000000
0001
01
82ae35bb9f2494b26dd28d4fcf0ce858cb5aa4be5063759fd5e2ea62a8985d8a
01000000
00
ffffffff


02  outputs

dfcd070000000000
17
a9149fc3692215f2cc25dbb0a1a33558f1cec0976dc687

0096dd0000000000
16
001400dcfe6c6983bdaed4028b7f389d5cfd68af7885

02  witness
47
304402207c415cadc11e25d7b81bb6267688406991523ead6a2fd8d0d84aeb0c4588b12302203fee1137d67a115f6623506fe81c314b9754c58ab362e2bfe94dbc8584f7f93601
21
03c168d6511e9371c60f4dec210ee8111c9bf7b3b8334184a0e1d8329112ff0b40
00000000


* catch errors, make sure the inpute string is of a certain lenght and only has legal characters */
/* we can determine start and end of every string that needs to be parsed, maybe
that should be all calculated first and placed in multi dimesnional array or
some other data structure instead of figure out as you gom
we need to start off by calculating the length of all the varibale length fields
I will only do the first byte now, I will take care of fd fe ff later, for more
complex
parsing.
also need to account for coinbase tx's.


010000000138966caadb834f37ddb3c51ec417dea9cd9c392e3ab465edd7959de6652c6b4e000000008b483045022100a66c833777f44b828bc1c327e4ee59fde31fd72b5577efabd85090d4ff8f9b6e022041921d797c592df2d566cc7f4fa119ada1aa3e7c8145c9543dd1e5ba765434c20141042ef60f0a969878a7d6acb4e8ba2645771c25b9713ceb4b545678bdfcc0507ab8b7c6650579c0f1b8ac09998501d372aa93657829c4f3c4a8268f0cf87aa8784cffffffff021e5f9902000000001976a9149e71046a35c496d7035e57b564f680adb9a13e9688ac71007000000000001976a914197807be6fab6fa0ccc6f0f6047a63b398b309f088ac00000000
